:1000000033C0000044C0000042C0000040C00000F7
:100010003EC000003CC000003AC0000038C00000F4
:1000200036C0000034C0000032C0000030C0000004
:100030002EC000002CC000002AC0000028C0000014
:1000400026C0000024C0000022C0000020C0000024
:100050001EC000001CC000001AC0000018C0000034
:1000600016C0000014C0000011241FBECFEFD8E05E
:10007000DEBFCDBF11E0A0E0B1E0E0E0F1E002C002
:1000800005900D92A830B107D9F730D037C0B8CF5E
:1000900008951092C50087E68093C400E1ECF0E07B
:1000A000808188608083E2ECF0E0808186608083DC
:1000B0000895E0ECF0E090819923E9F38093C60085
:1000C00008950F931F93CF93FC018081882351F0F3
:1000D0008F01C0E0EEDFCF5FF801EC0FF11D8081F2
:1000E0008111F8CFCF911F910F910895D1DF87E64D
:1000F00090E0CFDF80E091E0E4DFFCCFF894FFCF29
:0801000074657374315F200087
:00000001FF
