:1000000033C0000041C000003FC000003DC0000000
:100010003BC0000039C0000037C0000035C0000000
:1000200033C0000031C000002FC000002DC0000010
:100030002BC0000029C0000027C0000025C0000020
:1000400023C0000021C000003CC000001DC0000013
:1000500074C0000019C0000017C0000015C00000E7
:1000600013C0000011C0000011241FBECFEFD8E064
:10007000DEBFCDBF21E0A0E0B1E001C01D92A836F7
:10008000B207E1F798D0ABC0BBCF8093C400909388
:10009000C500E1ECF0E08081886180838081806C24
:1000A0008083E2ECF0E0808186608083789408951C
:1000B000E0ECF0E090819923E9F38093C600089585
:1000C00008951F920F920FB60F9211248F939F9352
:1000D000EF93FF93E09102018091C600F0E0EE0FF4
:1000E000FF1FED5FFE4F90E09183808380910201BE
:1000F000823328F081E080930101F89410C0E091F0
:100100000201F0E0EE0FFF1FED5FFE4F8081918155
:100110008436910521F481E080930101F894809167
:1001200002018F5F80930201FF91EF919F918F9168
:100130000F900FBE0F901F9018951F920F920FB641
:100140000F9211242F933F934F935F936F937F935D
:100150008F939F93AF93BF93EF93FF938091000191
:100160008F5F80930001E0910001F0E0EE0FFF1F30
:10017000EF5FFE4F808191819BDFE0910001F0E015
:10018000EE0FFF1FEF5FFE4F808191818436910556
:1001900009F4F894FF91EF91BF91AF919F918F91E6
:1001A0007F916F915F914F913F912F910F900FBE73
:1001B0000F901F90189584DF87E690E066DF7894B3
:1001C000809101018823E1F3109201011092020154
:1001D00010920001789480E290E06ADFF1CFF89409
:0201E000FFCF4F
:00000001FF
