:1000000033C000004CC000004AC0000048C00000DF
:1000100046C0000044C0000042C0000040C00000D4
:100020003EC000003CC000003AC0000038C00000E4
:1000300036C0000034C0000032C0000030C00000F4
:100040002EC000002CC0000047C0000028C00000E7
:100050009FC0000024C0000022C0000020C000009B
:100060001EC000001CC0000011241FBECFEFD8E04E
:10007000DEBFCDBF11E0A0E0B1E0E2E3F2E002C0FC
:1000800005900D92A436B107D9F721E0A4E6B1E0BE
:1000900001C01D92AC3CB207E1F7C4D0C8C0B0CFDC
:1000A0008093C4009093C500E1ECF0E0808188610A
:1000B00080838081806C8083E2ECF0E080818660C8
:1000C000808378940895E0ECF0E090819923E9F33F
:1000D0008093C600089508951F920F920FB60F9255
:1000E00011242F933F934F935F936F937F938F933D
:1000F0009F93AF93BF93EF93FF93E091660180913D
:10010000C600F0E0EE0FFF1FE959FE4F90E091832B
:10011000808380916601823368F081E0809365017D
:10012000F894E1ECF0E080818860808386E290E0E2
:10013000CADF18C0E0916601F0E0EE0FFF1FE95939
:10014000FE4F808191818436910561F481E0809336
:100150006501F894E1ECF0E080818860808380E0C4
:1001600090E0B1DF809166018F5F80936601FF911F
:10017000EF91BF91AF919F918F917F916F915F911F
:100180004F913F912F910F900FBE0F901F90189598
:100190001F920F920FB60F9211242F933F934F93FC
:1001A0005F936F937F938F939F93AF93BF93EF93DF
:1001B000FF9310926501E0916401F0E0EE0FFF1FE4
:1001C000E050FF4F808191817EDF80916401E0E00B
:1001D000F1E001900020E9F73197E050F14090E024
:1001E0008E179F0748F01092660110926401E1ECAF
:1001F000F0E08081877F8083809164018F5F8093AE
:100200006401FF91EF91BF91AF919F918F917F9189
:100210006F915F914F913F912F910F900FBE0F9073
:100220001F90189558DF87E690E03ADFFFCFF894EB
:02023000FFCFFE
:100232007B00610062006300640065007D000000D5
:1002420000000000000000000000000000000000AC
:10025200000000000000000000000000000000009C
:10026200000000000000000000000000000000008C
:10027200000000000000000000000000000000007C
:10028200000000000000000000000000000000006C
:040292000000000068
:00000001FF
