:1000000033C0000041C000003FC000003DC0000000
:100010003BC0000039C0000037C0000035C0000000
:1000200033C0000031C000002FC000002DC0000010
:100030002BC0000029C0000027C0000025C0000020
:1000400023C0000021C0000038C000001DC0000017
:100050001BC0000019C0000017C0000015C0000040
:1000600013C0000011C0000011241FBECFEFD8E064
:10007000DEBFCDBF21E0A0E0B1E001C01D92A23003
:10008000B207E1F715D031C0BBCF9093C500809384
:10009000C400E1ECF0E08081886180838081806829
:1000A0008083E2ECF0E0808186608083089508958B
:1000B000FEDF87E690E0E9DFFFCF1F920F920FB6D9
:1000C0000F9211248F93EF93FF93E6ECF0E0808181
:1000D00080930101809101018083FF91EF918F91C5
:0E00E0000F900FBE0F901F901895F894FFCF51
:00000001FF
