:1000000033C000004CC000004AC0000048C00000DF
:1000100046C0000044C0000042C0000040C00000D4
:100020003EC000003CC000003AC0000038C00000E4
:1000300036C0000034C0000032C0000030C00000F4
:100040002EC000002CC000005BC0000028C00000D3
:1000500026C0000024C0000022C0000020C0000014
:100060001EC000001CC0000011241FBECFEFD8E04E
:10007000DEBFCDBF11E0A0E0B1E0E6EAF1E002C0F2
:1000800005900D92AA30B107D9F721E0AAE0B1E0BE
:1000900001C01D92A237B207E1F76ED082C0B0CF87
:1000A0008093C4009093C500E1ECF0E0808188610A
:1000B0008083808180688083E2ECF0E080818660CC
:1000C000808378940895E0ECF0E090819923E9F33F
:1000D0008093C60008950F931F93CF93DF93789476
:1000E000EC018C01085F1F4F89918111ECDFC01773
:1000F000D107D1F7DF91CF911F910F910895089506
:100100001F920F920FB60F9211248F939F93EF932C
:10011000FF93E0910B018091C600F0E0EE0FFF1F0E
:10012000E35FFE4F90E09183808380910B018233E7
:1001300028F081E080930A01F89410C0E0910B014F
:10014000F0E0EE0FFF1FE35FFE4F80819181843668
:10015000910521F481E080930A01F89480910B01CC
:100160008F5F80930B01FF91EF919F918F910F9083
:100170000FBE0F901F901895C2DF87E690E090DFCA
:10018000789480910A018823E1F310920A01109279
:100190000B0180E091E09FDF8DE091E09CDF78949F
:0601A000F0CFF894FFCF40
:0A01A60072656365697665642000E8
:00000001FF
