:1000000033C0000041C000003FC000003DC0000000
:100010003BC0000039C0000037C0000035C0000000
:1000200033C0000031C000002FC000002DC0000010
:100030002BC0000029C0000027C0000025C0000020
:1000400023C0000021C000003CC000001DC0000013
:100050001BC0000019C0000017C0000015C0000040
:1000600013C0000011C0000011241FBECFEFD8E064
:10007000DEBFCDBF21E0A0E0B1E001C01D92A836F7
:10008000B207E1F74BD059C0BBCF8093C400909327
:10009000C500E1ECF0E08081886180838081806828
:1000A0008083E2ECF0E0808186608083789408951C
:1000B000E0ECF0E090819923E9F38093C600089585
:1000C00008951F920F920FB60F9211248F939F9352
:1000D000EF93FF93E09101018091C600F0E0EE0FF5
:1000E000FF1FEC5FFE4F90E09183808380910101C0
:1000F0008F5F8093010180910101823330F081E0B4
:100100008093000110920101F894FF91EF919F916B
:100110008F910F900FBE0F901F901895D1DF87E63B
:1001200090E0B3DF7894809100018823E1F310928E
:0E013000000182E6BDDF7894F6CFF894FFCF91
:00000001FF
